:020000040800F2
:1000000000800020098800083D8700083F8700081D
:10001000418700084387000845870008000000006A
:1000200000000000000000000000000047870008FA
:1000300049870008000000004B8700084D87000832
:10004000598800085988000859880008598800080C
:1000500059880008598800085988000859880008FC
:1000600059880008598800085988000855870008F1
:1000700059880008598800085988000859880008DC
:1000800059880008000000005988000859880008B5
:1000900059880008598800085988000859880008BC
:1000A00059880008598800085988000859880008AC
:1000B000598800085988000859880008598800089C
:1000C000598800085988000859880008598800088C
:1000D000598800085988000859880008598800087C
:1000E000598800085988000859880008598800086C
:1000F0005988000859880008598800080000000045
:10010000000000005988000800000000598800081D
:100110005988000800000000598800085988000824
:10012000598800085988000859880008598800082B
:1001300059880008000000000000000059880008ED
:1001400059880008598800080000000000000000DD
:10015000000000000000000000000000000000009F
:1001600000000000000000000000000059880008A6
:100170005988000800000000000000000000000096
:100180000000000059880008000000000000000086
:10019000000000000000000000000000000000005F
:1001A000000000000000000059880008598800087D
:1001B0005988000859880008598800080000000084
:1001C0000000000059880008000000000000000046
:0801D000598800085988000855
:1001E00010B5054C237833B9044B13B10448AFF371
:1001F00000800123237010BDC40600200000000011
:10020000A823010808B5034B1BB103490348AFF30A
:10021000008008BD00000000C8060020A8230108D7
:10022000312970B5864645D828292AD80A2920D9E7
:10023000A1F10B0C324C5FFA8CFC012000FA0CF09F
:100240000440002C4DD0D2B1DEE90540844216DADC
:10025000DEF8105004EB840C05EB8C000134002612
:10026000C0E90166CEF8144005F82C10C0E903235C
:1002700070BD042930D9A1F109000128E3D900207B
:1002800070BDA1F129000828F9D801A454F820F084
:1002900049020008DD020008D90200087F020008B8
:1002A000D902000849020008490200084702000874
:1002B000DD020008A1F13400C0B21D28DFD8114CC6
:1002C0004FF0010C0CFA00FC0CEA0404002CBAD12B
:1002D0000D480CEA000070B1002AD0D0002BB3D139
:1002E000CDE710F47F1FAFD1084C0440002CC6D0DE
:1002F000002AF3D1C3E71CF0505CC0D0A4E700BFD4
:10030000FE1F802F0711C701F82E000A01004000D0
:10031000F0B5C26811786E29864625D03039CBB247
:10032000092B2BD80026164D00206FF0004402E068
:10033000B0EBD30F15DC0132CEF80C201378303B34
:100340005FFA83FC00EB800001EB4000BCF1090F79
:100350001946A4EB0303A5FB0373E9D906B1404298
:10036000F0BD4FF0FF30F0BD531CC3605178303901
:10037000CAB2092A02D81A460126D4E70020F0BDE5
:10038000CDCCCCCC10B5044629B9C3681A786AB173
:100390005A1CC260197868290CD0762906D12046EB
:1003A000FFF7B6FFE3681A785F2A01D0002010BD7E
:1003B0000133E3602046FFF7ABFFE3681A785F2A5A
:1003C000F4D10133E360012010BD00BF10B4C36855
:1003D0000A46197852290DD04F2902D0104610BC78
:1003E0007047C46A202103340133C462C36010BC67
:1003F000002315E7C46A1F210234F5E7002966D0FF
:1004000038B505460C46A368012B39DCD5F81C012C
:10041000B0F5806F03F1010332DC2278A360531E34
:10042000502B2DD8DFE803F03131314C2C2C2D2D01
:100430003131313131313131313131313131312CB1
:1004400031313131313131313131424231312C317F
:100450003131312931313131312C2D31313131319D
:100460003131313131313131312C2C3129292929A6
:100470002C313131313131313100E468002CC2D1BD
:1004800038BD2469002CBED1FAE7E168431CC5F8E9
:100490001C312846FFF7B2FF21692846FFF7AEFF5F
:1004A000D5F81C31013BC5F81C3138BDE1680B782B
:1004B000052BEBD1D5F838310133C5F83831E5E7F4
:1004C000D5F84431E1680133C5F84431DEE77047BF
:1004D000034600202BB909E0DA682AB11B69013014
:1004E0001BB11A782F2AF7D070477047184670470B
:1004F000C3681A785F2A01D00120704710B55A1CD2
:10050000C2605A785F2A044604D0FFF701FFC04357
:10051000C00F10BD0233C360FFF7FAFE002809DBED
:10052000092805DDE3681A785F2A03D10133E36007
:10053000012010BD002010BD20B909E039B10069CB
:10054000013930B103782F2BF8D000207047C068F4
:1005500070477047F0B514465268A5684B1C1344A9
:10056000AB4283B00E46074611D8E5686DB96368A3
:1005700020683246184439460CF086FFD4E9003230
:1005800033449D5463683344636003B0F0BDE26854
:10059000002AFAD155B16D00AB42FCD8206829463B
:1005A0000CF038F838B12060A560DEE7022B4FF080
:1005B0000205F0D8F2E7019020680BF0DDFD019B09
:1005C0000122C4E90033C4E90232DEE70378722B6A
:1005D00007D0562B05D04B2B03D0442B03D0002043
:1005E000704701207047407800F0DF034F2BF8D0B0
:1005F000773801288CBF002001207047D0F80031E7
:10060000FF2B70B504460D4606D05A1CC4F80021D5
:10061000E55484F8045170BD0026194680F8FF6047
:10062000D0E942329847D4F8283101221344C4F863
:1006300028313346C4F80021E55484F8045170BDD4
:100640000346D0F8100190B1CB684268002B1069C6
:100650000BDB20B909E03BB10069013B30B1027806
:100660002F2AF8D000207047C068704770470122D9
:10067000C3F81821704700BF002940D02DE9F04190
:10068000DFF88080204F05460C4601262378082B92
:1006900013D8082B1ED8DFE803F00D1D1D1D1D27E4
:1006A0000D232300172B15D9183BDBB227FA03F3D0
:1006B000DB070FD50020BDE8F0812C2BF2D9323BAF
:1006C000DBB21B2B06D806FA03F212EA080FF1D1AF
:1006D000012B05D0E1682846FFF7CEFF0028EAD1BC
:1006E0002469002CD2D1E5E721462846FFF7A8FF70
:1006F0000028DFD003782F2BDCD1BDE8F08100206B
:10070000704700BF0100E30C018010002DE9F041AB
:10071000044608460D4606F0FBFE40B3013DD4F802
:1007200000112F184FF0000809E00B46BD4201F1FF
:100730000101C4F80011E65484F8046117D0FF29C0
:1007400015F8016FF1D1D4E9423284F8FF802046D8
:100750009847D4F8283101210B44C4F828310023EC
:10076000BD42C4F80011E65484F80461E7D1BDE845
:10077000F08100BF38B5C3681A78542A24D15A1CB6
:10078000C2605A785F2A044620D06E2A1CD0FFF738
:10079000BFFD411C18D4E3681A785F2A14D10133D5
:1007A000D4E905208242E3600EDA236902EB820C71
:1007B00003EB8C0001320025C0E90155626105227E
:1007C00003F82C20C16038BD002038BD0233002161
:1007D000E6E700BF2DE9F04188B00A4604461A4911
:1007E00001A80CF033FC01A806F092FE40B301AD65
:1007F000D4F800112F184FF0000809E00B46BD4255
:1008000001F10101C4F80011E65484F8046117D025
:10081000FF2915F8016BF1D1D4E9423284F8FF8049
:1008200020469847D4F8283101210B44C4F82831D8
:100830000023BD42C4F80011E65484F80461E7D1F6
:1008400008B0BDE8F08100BF982F010870B50446DC
:10085000FFF75EFD051E46DDE66863689B1B9D4253
:100860003EDCA26873195207E36004D5725D242A46
:1008700004BF0133E360092D22DD2A4908223046F6
:100880000CF0E8FC30B9337A2E2B2ED05F2B2CD015
:10089000242B2AD0D4E90532934221DA206903EBD4
:1008A000830200EB820001330022C0E90122636170
:1008B00000230370C0E90133C0E90365A06270BD85
:1008C000D4E9053293420BDA206903EB830200EB93
:1008D000820001330022C0E901226361002EE7D1CA
:1008E0000020A06270BD002070BD737A4E2BD1D164
:1008F000E26A6369A1691632521B8B42E262EFDA47
:10090000226903EB830081000133636102EB800005
:100910000023C0E901335354034A1523C0E90323DC
:10092000DFE700BF9C2F0108A82F01082DE9F04147
:10093000C3681A78532A31D15A1CC2605A780446C7
:10094000A2B39A1CC2605A785F2A44D0A2F1300345
:10095000D8B2092826D800210DE0303B99421DD895
:10096000E06802781946451C1AB1E56002785F2AF2
:100970003BD0A2F13003D8B2092801EBC103A2F1A8
:10098000410C02EB8303E8D9BCF1190F06D801EB47
:10099000C10302EB8303373B9942E1D90025284686
:1009A000BDE8F081A2F141001928D4D9A36803F071
:1009B0000803002B14BF0125002500D1B9B93F4B16
:1009C000742103F1A80001E013F81C1F914215D017
:1009D0008342F9D1E2E70023226A9A42DED9E26932
:1009E00052F823502846BDE8F0810133F4E7E3686C
:1009F0001B78433B012B98BF0D46E0E75E69002E54
:100A000054D0D4E905208242D3F8188053DA2769FC
:100A100002EB820C07EB8C014FF0000EC1E901EEF6
:100A200001324FF0180E626107F82CE0C1E903684B
:100A3000A162002D37D0D3E90371E36A82420B44EF
:100A4000E36236DA236902EB820003EB80050132B0
:100A50000026C5E901666261182203F82020C5E975
:100A60000371E3681A78422A99D1A66A0133E360D8
:100A70002046FFF7EBFE2A4603464D212046FFF7AE
:100A8000CFFBE3681A78422A0546EFD0A662002819
:100A900084D0D4E90832934280DAE1695A1C41F8E3
:100AA000230022627BE7D3E90171C6E7D4E9052080
:100AB000BFE70025D5E70021BAE700BF50240108B1
:100AC0002DE9F043C26883B004461046FFF77EFD6F
:100AD000002866D113785A2B31D82F2B5CD9303BA4
:100AE0002A2B59D8DFE813F08C008C008C008C0086
:100AF0008C008C008C008C008C008C0058005800FE
:100B000058005800580058005800D6015800D90025
:100B1000ED005800E70060015800580058005800E8
:100B2000580018028C00CB00BD005800AF009501A2
:100B30006E01BE0158005800580058008C00613BFF
:100B40005FFA83FCBCF1190F26D8C44D012101FACC
:100B50000CF10D40EDB1C24903EB830301EB8301BE
:100B6000D4E90535AB4280F2C583266903EB830CDB
:100B700006EB8C050133C5E901006361272306F804
:100B80002C30E960E36A496801320B44E260E362B9
:100B900003E0BCF1140F48D00025284603B0BDE89F
:100BA000F083002201A9204601F0D0FA0546002872
:100BB000F2D0E3681B78462B20461ED0FFF780FF5B
:100BC00028600028E8D003781F3B012B05D8019A44
:100BD000C368C2602A6801922B60019D002DDBD0A2
:100BE000D4E908329342D7DAE1695A1C284641F821
:100BF0002350226203B0BDE8F08300F0FDFBDFE785
:100C0000204601F0CBFD05460190002DC4D0D4E96B
:100C100008329342C0DAE16941F82350019D5A1C21
:100C20002846226203B0BDE8F0830132E26020462C
:100C3000FFF70CFE2B46024628212046FFF7F0FA6C
:100C400005460190E1E70132E2602046FFF738FFF8
:100C50000023024623212046FFF7E2FA05460190D1
:100C6000D3E70132E2602046FFF72AFF0023024665
:100C700022212046FFF7D4FA05460190C5E701324C
:100C8000E2602046FFF71CFF002302462421204695
:100C9000FFF7C6FA05460190B7E70132E260204649
:100CA000FFF70EFF0023024625212046FFF7B8FA82
:100CB00005460190A9E7204600F09EFB05460190FD
:100CC000A3E7531CE3605378002B3FF465AF931CFC
:100CD000E3605378463B302B3FF65EAF01A151F8FD
:100CE00023F000BF850F0008990B0008990B00083E
:100CF000990B0008990B0008990B0008990B000844
:100D0000990B0008990B0008990B0008990B000833
:100D1000990B0008990B0008990B0008490F00086F
:100D2000990B0008990B0008990B0008990B000813
:100D3000990B0008990B0008990B0008990B000803
:100D4000990B0008990B0008990B0008990B0008F3
:100D50001D100008990B0008F10F00080B12000885
:100D6000DB11000879100008990B000849100008F1
:100D7000AB110008990B0008990B0008990B0008AB
:100D8000990B00087B110008990B000863110008FB
:100D9000990B0008990B000833110008490F00084F
:100DA00003110008A91000080132E2602046FFF795
:100DB00087FE0023024626212046FFF731FA05462A
:100DC000019022E72046FFF7D5FCE66801903378D2
:100DD000492B05467FF419AF636B002B40F0578217
:100DE00000283FF4D9AED4E908218A42BFF6D4AE38
:100DF000E16941F82200013222623278493A012A3F
:100E000005D80136E660204600F00AFE03462A4671
:100E10001CE05378A3F13002092A05D95F2B03D0D7
:100E2000413B192B00F2268200212046FFF77EFD70
:100E3000E36801901A78492A05467FF4AEAE013383
:100E4000E360204600F0ECFD2A46034604212046DC
:100E5000FFF7E6F905460190D7E600BFFF7BEC03FC
:100E6000142501080132E2602046FFF7EFFCE36839
:100E700001901A78492A054600F0E1812046FFF7E3
:100E80001FFE2B46024621212046FFF7C9F90546E1
:100E90000190BAE6551CE56053785F2B00F0CD81D8
:100EA000303B092B00F2D8812B469C460133E3608E
:100EB000197830390929F8D9D4E905108142ACEB09
:100EC0000202BFF669AE276901EB810007EB8006DD
:100ED0004FEA800E002001318242C6E901006161C3
:100EE0007FF75AAEC6E9010007F80E00C6E90352C3
:100EF0009CF801201D465F2A7FF44EAE0135E56067
:100F00002046FFF7DDFD324603462A212046FFF743
:100F100087F90546019078E60132E2602046FFF746
:100F2000CFFD054600283FF437AE2046FFF7C8FD49
:100F3000034600283FF430AE2A462B212046FFF717
:100F40006FF90546019060E60123256B2363204677
:100F500000F02EFE25630246002344212046FFF7C1
:100F60005FF90546019000283FF416AEE3681A7851
:100F7000002A3FF411AE5A1CE2601B78452B7FF427
:100F80000BAE44E6D4E905318B4280F2B58121698C
:100F900003EB830001EB800501330026C5E9016600
:100FA00063612C2301F8203093780195303BDBB24C
:100FB000092B94BF012333462B8202D82046FFF72A
:100FC000A7F92046FFF77CFDE86000283FF4E4AD78
:100FD0002046FFF79DF9E268137813B1531CE360D4
:100FE0001378A3F17303B3FA83F35B096B82D4E53F
:100FF000D4E905329342BFF6CFAD2269C04903EB75
:101000008305A8000133636102EB85050023C5E970
:10101000013313540E23C5E90313BEE5D4E90532A9
:101020009342BFF6B9AD2269B64903EB8305A80028
:101030000133636102EB85050023C5E901331354D5
:101040000423C5E90313A8E5D4E90532934280F2ED
:101050006B81226903EB830102EB810501330020E0
:10106000C5E901006361272302F82130E36AA64A3B
:10107000EA600433E36290E5D4E90532934280F2FA
:101080005381226903EB830102EB810501330020C8
:10109000C5E901006361272302F82130E36A9B4A16
:1010A000EA600933E36278E593785F2B00F01481FE
:1010B000D4E905329342BFF66FAD226903EB830199
:1010C00002EB810501330020C5E901006361432380
:1010D00002F821302046FFF71BF9E860E3681A7830
:1010E0005F2A7FF459AD0133E3602046FFF7E8FC47
:1010F0002A4603462D212046FFF792F80546019027
:1011000083E5D4E90532934280F20E81226903EB34
:10111000830102EB810501330020C5E90100636111
:10112000272302F82130E36A794AEA600733E36251
:1011300033E5D4E90532934280F2F680226903EB6D
:10114000830102EB810501330020C5E901006361E1
:10115000272302F82130E36A6E4AEA600833E3622B
:101160001BE52046FFF7ACFC002302464C2120463D
:10117000FFF756F80546019047E5D4E9053293425A
:1011800080F2D280226903EB830102EB81050133F7
:101190000020C5E901006361272302F82130E36ADA
:1011A0005D4AEA601133E362F7E4D4E90532934221
:1011B00080F2BA80226903EB830102EB81050133DF
:1011C0000020C5E901006361272302F82130E36AAA
:1011D000524AEA600833E362DFE4D4E9053293421D
:1011E00080F2A280226903EB830102EB81050133C7
:1011F0000020C5E901006361272302F82130E36A7A
:10120000474AEA600A33E362C7E4D4E9053293420D
:1012100080F28A80226903EB830102EB81050133AE
:101220000020C5E901006361272302F82130E36A49
:101230003C4AEA600933E362AFE400265EE601332C
:10124000E360204600F0ECFB2A46034604212046DA
:10125000FEF7E6FF054611E60123256B23632046D2
:1012600000F0A6FC2563064600283FF495ACE5682F
:101270002A7840E6204601F091FA054601900028C0
:101280003FF48AAC0378182B7FF4C1AC85E4731C5F
:10129000E3602046D4F81490D4F82080E76A00F088
:1012A000BFFBE3681B78492B06D0E660C4F81490B6
:1012B000C4F82080E762A8E4002D3FF46DACD4E9C7
:1012C00008139942BFF668ACE26942F82150013137
:1012D00003462A462162B9E503320123256BE26009
:1012E0002363204600F064FC2563054600287FF454
:1012F000F5AE51E4C368FFDE00231B70FFDE00BFC4
:10130000C82F0108C02F0108582701081C27010811
:101310006C27010880270108A827010894270108E5
:1013200044270108302701080023DB68FFDE00BFE7
:1013300030B5C26883B0002301931378002B34D0FA
:10134000044601AD4F2B0CD009D82E2B01D0452BD4
:101350000AD1019848B30369CBB103B030BD522B19
:1013600002D15378452BF4D02046FFF7A9FB024663
:1013700000232E212046C2B1FEF752FF2860A0B103
:10138000E268137800F11005002BDBD1E1E7C268B9
:1013900011782729E1D1D268117C0929DDD1E16AD0
:1013A0005268891AE162C360D7E7002003B030BDFC
:1013B00070B5C3681A784A2A05461AD081B1284602
:1013C000FFF77EFB044690B12846FFF7B1FF0346C6
:1013D00068B1224628462921BDE87040FEF720BFAB
:1013E00028460C46FFF7A4FF03460028F1D1002051
:1013F00070BD0133C360E2E710B50446806810F4A5
:1014000080200BD1E26BB2F5006F06D8511CE36867
:10141000E1631978462907D0E26310BDE3681A78C2
:10142000462A01D0002010BD5A1CE2605A78592A81
:1014300004BF0233E36001212046FFF7B9FF0146F4
:101440002046FEF7C3FFE3681A78452A04BF01333C
:10145000E360A36818BF00205B03DED4E26B013AAF
:10146000DAE700BFF8B5C3681F78064677BB4FF0D0
:10147000000E3D4D482100228B1A03EBD37302EB83
:101480006303180105EB031C2C582078B84206D0E2
:1014900094BF5A1C19468A42EED10020F8BD6078EC
:1014A0007045F5D1D6E905329342F6DA326903EB9D
:1014B000830102EB810001330024C0E90144736120
:1014C000322302F82130C0F80CC0F8BD5A1CC260AB
:1014D00093F801E01F78BEF1000F02D1762FC8D03B
:1014E000C5E79A1CC260762F93F801E01FD1AEF1D8
:1014F0003004E3B2092BBCD8FFF7A8F9D6E90531CF
:101500008B420246C9DA376903EB830107EB81009E
:1015100001330025C0E9015589007361002ABCD060
:101520003323C0E901557B54C0E90342F8BD632F62
:101530009FD1BEF1760F9CD1D0E90C34B3FA83F37E
:101540005B094363FFF7BCFA736B024633B10023B8
:1015500035213046FEF764FE7463F8BD3421304611
:10156000FEF75EFEF8E700BFBC270108F8B5C368C8
:101570001A78A2F130010929044665D9552A6CD0A0
:1015800038D8442A0FD94C2A0AD10133C360FFF757
:101590005DF9054620B12046FEF7AAFF00283BD1A1
:1015A00000252846F8BD422AFAD9816A41B1087857
:1015B000002840F09180E26A08690244E2621A78E9
:1015C000432A00F0C880442A40F084805A78303A98
:1015D000052AE5D801A050F822F000BFE716000860
:1015E0003F1700082D170008A1150008391700083B
:1015F00033170008A2F161011929D1D86F2A056BB0
:1016000000F0A0802046FFF72DFF2563054618B1A6
:101610000378322B00F0C680E3681A78422AC0D1E2
:10162000A66A0133E3602046FFF710F92A46034615
:101630004D212046FEF7F4FDE3681A78422A05465C
:10164000EFD0A6622846F8BDFFF700F9E3681A78E4
:101650000546422AE4D02846F8BD5A786C2A00F0A4
:10166000C180742A9CD1591CC1605A78742A37D120
:101670009A1CC2609A785F2A00F008816E2A8FD087
:10168000FEF746FE0130E36800F1FD801A785F2A1C
:1016900020D10133D4E905218A42E36080F2008140
:1016A000266902EB820706EB870501320021C5E9B6
:1016B00001116261492206F82720E860D4E9082078
:1016C000824280F2EA80E16941F8225001322262CE
:1016D0001A78BEE70025BCE718287FF471AF6AE7E7
:1016E0000B460025B5E74FF0010ED4E905209F1CFD
:1016F0008242E76080F2C280D4F810C002EB820020
:101700000CEB800501320026C5E9016680006261AC
:10171000002900F0B380C5E9016608220CF800201A
:1017200085F80CE029619A783B4692E74FF0030E6A
:10173000DBE74FF0050ED8E74FF0040ED5E74FF08A
:10174000020ED2E75A786E2A7FF45CAF0233002291
:10175000C360026356E75A78492A7FD0A2F131006C
:1017600004283FF61DAF303A0233D6B2E360D4E925
:101770000532934280F28680276903EB830207EBF0
:10178000820501330020C5E9010092006361002950
:1017900078D00723C5E90100BB54E3682E732961A3
:1017A0001A7856E7C268E36A9168126807330B44F7
:1017B000E36213786C2B7FF42FAF5378692B7FF49F
:1017C0002BAF9378002B7FF427AF2046FFF73EF82E
:1017D0002A46034637212046FEF722FDE3680546E8
:1017E0001A7836E7591CC1605A786C2A7FF478AFB2
:1017F0000233C360FFF79CFDE3680646002842D031
:101800001A78452A7FF466AF5A1CE2605A785F2A3C
:1018100049D06E2A3FF4C4AE2046FEF779FD013070
:10182000E36830D41A785F2A7FF454AF01336269D9
:10183000A169E3608A4233DA216902EB820701EB96
:10184000870501324FF0000CC5E901CC62614722E7
:1018500001F82720C5E903601A78FAE6591CE1600F
:101860009A78A2F13100042813D80333303AE360A8
:101870002046D6B2FFF724F9A16A78E79A780025C6
:101880003B46E6E6E3681A780025E2E603330020EB
:1018900000E75A7800250B46DBE61A780D46D8E6B5
:1018A0001A780025D5E602330020C0E7F8B5C268F3
:1018B00013784C2B32D1531CC36051785F290446F6
:1018C00051D05A2913D15A1CE2605B78472B43D080
:1018D000542B41D00021204601F0AEF8E3681A787D
:1018E0000646452A1AD10133E3603046F8BDFFF7BA
:1018F000E7F8064690B10378272B12D0E2681578F6
:101900006E2D23D03D21452D59D0134603E0E360D1
:101910001D78452D2FD00133002DF8D100263046FB
:10192000F8BDC3681A7C1AB1E26A5968521AE262B9
:101930002549186805F08EFD0028DFD1E26815788A
:10194000452D3ED06E2D01D03D21DEE7531CE360D6
:1019500055783E211A46D6E7204600F0A1FCE36800
:1019600006461A78BDE7931CC36092785A2A18BFBE
:101970000026B6D1A7E79D1AD4E9050398421CDAE0
:10198000D4F810E000EB80070EEB87034FEA870CDA
:1019900000270130BD42C3E9017760610DDDC3E975
:1019A00001770EF80C70C3E9032532462046FEF796
:1019B00037FCE36806461A7893E70023F5E700252D
:1019C000DAE70132E260AAE7D82F010838B5C26829
:1019D00013784C2B1FD0044607D8493B012B15D850
:1019E0000132BDE83840C2601AE0582B0ED10132F6
:1019F0000123056BC260036300F0DAF8E368256336
:101A00001A78452A0AD10133E36038BD2046BDE883
:101A10003840FFF755B8BDE8384047E7002038BDEB
:101A200070B5C368866A1A78452A82B004461FD00A
:101A30000023019301AD09E0FEF7F2FB286000F1FD
:101A4000100560B1E3681A78452A0BD02046FFF7ED
:101A5000BDFF024600232F212046002AECD10020A2
:101A600002B070BD0198A6620133E36002B070BDA0
:101A70005A1C0023C2602F211A4602B0BDE87040F4
:101A8000FEF7CEBBF8B5C268147894B306460F468D
:101A90000025A4F130034A2B2BD8DFE803F02D2DCD
:101AA0002D2D2D2D2D2D2D2D2A2A2A2A2A2A2A2A7E
:101AB0002A2D772B2A2A2A682A2A2D5F2A2A2A2ABF
:101AC0002A534B2D2A2A2A2A2A2A2A2A2A2A2A2D26
:101AD0002D2D2D2D2D2D2D2D2D2D2D2D2D2D2D2D36
:101AE0002D2D2D2D2D2D2D2D2D00F2681478002C4F
:101AF000CFD100252846F8BD3046FFF737FD034615
:101B0000002D4ED10546532CEFD0F2681478452CA9
:101B1000F0D0002FEBD0002DEBD0D6E908318B426E
:101B2000E7DAF16941F82350013333621478002C6D
:101B3000AFD1DEE73046FEF71DFE0346002D30D163
:101B40001D46E2E701213046FEF7F0FE034645BBA5
:101B5000F26814781D46002C9BD1CAE7002DC8D02E
:101B6000531CF36054781A46002C92D1C1E7002D23
:101B7000BFD00132F2603046FFF752FF0421034626
:101B80002A463046FEF74CFB0546BCE7537803F087
:101B9000DF03542B304606D0FFF7E8FC0346002D48
:101BA000CED00121ECE7FEF78BFF0346C6E700BF6E
:101BB000C26813784C2B00F08F80542B00F08D807E
:101BC000732B2DE9F04104465ED0662B2CD0A3F197
:101BD000300109290CD82046FFF7C8FC054600282B
:101BE00076D0E3681A78492A79D02846BDE8F08192
:101BF0006F2B67D0692B7FD153786C2B4BD102327E
:101C0000E26000251178002962D05378002B5FD064
:101C10004521204600F060FA2A460346312120463D
:101C2000BDE8F041FEF7FCBA5378702B33D1931C1A
:101C3000C3609378542B00F062815F2B00F08A80A0
:101C40006E2B45D0FEF764FB411C41D4E3681A7843
:101C50005F2A3DD16FF0004201339142E36037D0FB
:101C60000230D4E90532934232DA226903EB830170
:101C700002EB810501330026C5E901666361062395
:101C800002F82130E860B0E75378722B00F00A8147
:101C9000702B00F028812046FFF7E4FB0546B8B121
:101CA0000378322B35D0342B00F0B48110D8332B8D
:101CB0000ED1C368032B0BD8DFE813F06F00DC00F4
:101CC0000A000A0053786E2BE5D10232C26082E727
:101CD00000252846BDE8F081E8E5FEF74BBD01335D
:101CE000E3602046FFF79CFE2A4603460421204677
:101CF000BDE8F041FEF794BA742B40F0C0805378F1
:101D00006C2BC8D10232E260FEF7DAFEE2680546CB
:101D100078E7C168E36A8A680E68023A1344E362AE
:101D20003378732B0FD17278742A0CD1B27852B9F0
:101D30002046FEF7C5FE03462A4620463721BDE869
:101D4000F041FEF76DBACF68032FC1D8DFE807F086
:101D500025065A2D0332C260012082E73278702AAC
:101D600000F0D6806D2A00F0D3800027732B40F05E
:101D7000CA807378502B40F0C680B378002B40F0B7
:101D8000C2802046FFF74CFE0346002FD4D01A46EF
:101D900039212046FEF744FACDE72A4620460023A3
:101DA000BDE8F0413621FEF73BBA712B40F0D880F8
:101DB0007278752A40F0D480B278002A40F0D08042
:101DC0002046FFF7F5FE06462046FFF7F1FE0746E0
:101DD0002046FFF7EDFE034600283FF479AF3A4670
:101DE0003C212046FEF71CFA324603463B212046A2
:101DF000FEF716FA2A4603463A212046BDE8F0418E
:101E0000FEF70EBAEB681B685A78632A00F01C8153
:101E10003378662B00F04381642B40F03781737870
:101E2000692B40F03381B378002B40F02F8120469E
:101E3000FFF79CFB07463378632B40F0C480727831
:101E40006C2A40F0C080B278002A40F0BC80452166
:101E5000204600F041F9064633463A4639212046ED
:101E6000FEF7DEF92A46034638212046BDE8F04158
:101E7000FEF7D6B92046FFF79BFE03465CE7752BBD
:101E80007FF409AF0132C260FEF7E0FC0546204650
:101E9000FFF7C6FD2A4603463F212046BDE8F04134
:101EA000FEF7BEB9931C816BC360937831B1552B9B
:101EB00052D8422B3AD8303B092B3ED92046FEF768
:101EC000FFFD06462046FFF751FBE3681A78492AD2
:101ED000054600F0AC802B46324620460121BDE885
:101EE000F041FEF79DB90232C260FFF761FE0023A8
:101EF00002464C212046BDE8F041FEF791B903327D
:101F0000C2600020ADE62046FFF752FE03463CE7E4
:101F1000717891427FF429AFE26811785F297FF4EC
:101F200025AF0132E260337800271FE7684A433B60
:101F3000DBB222FA03F3DB07C0D54FF0FF33A36314
:101F400000212046FFF79EFDE3681A78452A0646E1
:101F5000B8D10133E360B5E7613B192BAED8ECE7AC
:101F6000642B06D17378582B03D1B378002B3FF440
:101F700027AF3378662B00F097806E2B7FF4A8AEE6
:101F80007378772B02D0612B7FF4A2AE5F212046BD
:101F900000F0A2F806462046FEF792FDE3681A78A4
:101FA000452A074600F09080702A00F08180692A57
:101FB0007FF48EAE5B786C2B7FF48AAE2046FFF701
:101FC000F7FD03460BE7642B53D17278742A50D186
:101FD000B278002A4DD1E3681A78672A5BD0732A59
:101FE00002D15B78722B4CD02046FFF7BFFAE36832
:101FF0001A78492A06467FF42FAF0133E360204662
:10200000FFF70EFD3246034604212046FEF708F98D
:10201000064621E7E3681A785F2A7FF42BAF013385
:10202000E3604521204600F057F8034684E601337B
:10203000E3602046FFF7F4FC2A46034604212046CD
:10204000FEF7EEF8054646E71B78732B0CD0633B92
:10205000DBB20F2B3FF6DCAE1E4A02EB8303D3F854
:10206000FC37002B3FF4D4AE2046FEF729FD07468F
:10207000E1E6702B05D17378742B02D1B378002B75
:10208000A9D02046FFF794FD0646E5E62046FFF777
:102090008FFD0746CFE65B78732BA5D1F1E720468D
:1020A000FFF7E0F90746C6E62046FFF7DBF98AE6C8
:1020B0005A78692A7FF40CAE0233E360452120464A
:1020C00000F00AF803468AE60133E360002386E65F
:1020D00001020400502401082DE9F041C2680E46B7
:1020E000117882B00023B1420446019324D0D0F885
:1020F000308001AD012709E0FEF792F8286000F179
:10210000100578B1E3681A78B2420FD027632046F1
:10211000FFF74EFD024600232E212046C4F83080F2
:10212000002AE9D1002002B0BDE8F0810198013316
:10213000E36002B0BDE8F0810132C2602E211A4690
:1021400002B0BDE8F041FEF76BB800BF2DE9F04FDB
:102150000F46C168B2F1000983B00A78044615BF82
:102160004FF01E0A4FF01B0A4FF01D084FF01A08DF
:1021700014BF1C2619263D464FF0010B1BE0562AC2
:1021800033D04B2A37D04B7853B38B1CE3604B785A
:10219000782B4FD06F2B34D1E36A0933E36250219F
:1021A000002300222046FEF73BF82860C0B1E1681A
:1021B0000A7800F10C050846FEF708FA00283FD01F
:1021C0004B1C722AE360DAD1E36A0933E3623146D9
:1021D000002300222046FEF723F828600028E6D1DD
:1021E0000025284603B0BDE8F08FE36A0933E362B7
:1021F00041460023D5E7E36A0633E36251460023F4
:10220000CFE74F2B38D1E36A0933E3622046236BD3
:10221000C4F830B00193FFF7CBFC019B2363034666
:102220000028DDD0E26811784529D9D10132E26079
:102230005021B6E7E36A1133E3624E210023B0E791
:10224000B9F1000FCDD1462ACBD1BD42C9D01D2056
:102250001E211C2204E0192B0CD00C37BD42C0D02B
:102260003F683B781A2B03D01B2BF4D13970F4E76D
:102270003870F2E73A70F0E7772BB1D1E36A0633B2
:10228000E3622046FFF754F803460028A8D0E2682E
:1022900011784529A4D10132E260512181E700BFC4
:1022A0002DE9F041C16AC36801F11402C2621A78D3
:1022B000542A044678D0472A28D15A1CC2605A783A
:1022C00022B39A1CC2605A78562A22D8402A1DD9B5
:1022D000413A152A1AD8DFE812F026011900190030
:1022E0001900190019001900190019001900190026
:1022F0001900190019001900190019000501190029
:10230000EB001900E100E3680233E3600020BDE860
:10231000F081722AFAD1FDF7FBFF0128F6DDE368B0
:102320001A78002AF2D05E1CE6601B785F2BEDD194
:102330000022451E17464FF042083378002BE5D0A7
:10234000242B40F0E5817378532B00F005825F2B3E
:1023500000F00082242BD9D11946D4E90503984214
:10236000D1DA266900EB800C06EB8C030130C3E95F
:102370000177606106F82C80E668D960023D02367C
:10238000E660002A00F0E48141212046FDF748FF85
:1023900002460028BAD0002DCFDC20460023BDE83D
:1023A000F0414021FDF73CBF5A1CC2605A78002A18
:1023B000ACD09A1CC2605B78413B352BA6D801A2F9
:1023C00052F823F0AF2500080D23000873250008FC
:1023D0000D2300080D230008C32500080D23000865
:1023E0003F260008E9260008D52600080D2300082E
:1023F0000D2300080D2300080D2300080D230008FD
:102400000D2300080D2300080D230008FD260008F9
:10241000532600080D2300086B26000883260008B9
:102420000D2300080D2300080D2300080D230008CC
:102430000D2300080D2300080D2300080D230008BC
:102440000D2300080D2300080D230008972600081F
:102450000D2300080D2300080D2300080D2300089C
:10246000D72500080D2300080D2300080D230008C0
:102470000D2300080D2300080D2300080D2300087C
:102480000D2300080D2300080D2300080D2300086C
:102490000D2300080D2300080B26000800F07EF92C
:1024A0000023024613212046BDE8F041FDF7B8BEE7
:1024B0009A78002A00F05281DA1CC2609A78DB78A0
:1024C0006E2A45D0472B02D0542B40F0478120463E
:1024D000FFF7E6FE024620460023BDE8F0414A2110
:1024E000FDF79EBE00F05AF9D4E905129142064666
:1024F00080F23E81226901EB810002EB800500231E
:10250000C5E9013301314323616102F820302046DF
:10251000FDF7FEFEE8602B46324620461621BDE858
:10252000F041FDF77DBE9B78472B01D0542B0AD19B
:102530002046FFF7B5FE024620460023BDE8F041E5
:102540001721FDF76DBE002100F076FA0246F3E791
:10255000472B00F01981542B00F01681002100F068
:102560006BFA024620460023BDE8F0414B21FDF7FF
:1025700057BEFEF7A5FA05462046FDF7C9FE00281E
:10258000FFF6C4AEE3681A785F2A7FF4BFAE01336A
:10259000E3602046FEF794FAE16A0531E162024603
:1025A0002B4620460B21BDE8F041FDF739BEFFF771
:1025B0000DFA0023024630212046BDE8F041FDF728
:1025C0002FBEFEF77DFA002302460E212046BDE80D
:1025D000F041FDF725BE6821FDF7D4FE00283FF449
:1025E00095AEE3681B78472B00F0C980542B00F0B0
:1025F000C6800021204600F01FFA02462046002334
:10260000BDE8F0410F21FDF70BBE7621FDF7BAFEC4
:1026100000283FF47BAEE3681B78472B00F0AA80CC
:10262000542B00F0A7800021204600F005FA024656
:1026300020460023BDE8F0411021FDF7F1BD00F078
:10264000ADF80023024614212046BDE8F041FDF715
:10265000E7BD0A31C162FEF733FA002302460A21C0
:102660002046BDE8F041FDF7DBBD0F31C162FEF74A
:1026700027FA0023024609212046BDE8F041FDF774
:10268000CFBD00F08BF80023024615212046BDE89F
:10269000F041FDF7C5BD0021FDF774FE00283FF4B1
:1026A00035AE00212046FDF76DFE00283FF42EAE2A
:1026B000E3681B78472B6CD0542B6AD0002120464E
:1026C00000F0BAF9024620460023BDE8F04111218E
:1026D000FDF7A6BDFEF7F4F90023024612212046BD
:1026E000BDE8F041FDF79CBDFEF7EAF90023024684
:1026F0000C212046BDE8F041FDF792BDFEF7E0F960
:10270000002302460D212046BDE8F041FDF788BDBB
:10271000B446002104E01CF8013F23B1242B02D071
:102720000131A942F7DBD4E9053083421CDA206984
:1027300003EB830C0133636100EB8C03C3E9017786
:1027400000F82C70C3E90361E6686D1A0E4417E6C1
:102750001A4620E62E2100E62F21FEE50021204624
:1027600000F06AF90246B6E6E3680B44E360CDE5A3
:102770000025D0E62046FFF793FD024658E72046A5
:10278000FFF78EFD024639E72046FFF789FD024636
:10279000E8E62046FFF784FD024694E7F0B5C268FC
:1027A00013784E3B83B004460C2B08D8DFE803F0C7
:1027B0003107070707170712070707075500FEF736
:1027C000D5FEE3681A78492A054600F0D2802846EB
:1027D00003B0F0BD03B0BDE8F040FEF7C7BE5378CC
:1027E000742B00F08E800021FEF7A0F8E3681A78C1
:1027F000492A0546EBD10133E3602046FFF710F983
:1028000003462A460421204603B0BDE8F040FDF708
:1028100007BD0132C26001A90122FFF797FC0546FE
:10282000002800F0B78000212046FDF7CFFD0121F0
:1028300006462046FFF726F92860002800F0AA8007
:1028400016B1019BF3600196E3681A78452A40F0BF
:10285000A1800133019DE360B9E7531CC360537845
:10286000472B02D0542B40F099802046FFF718FDEB
:102870000546002D00F08E80E3681A78452A40F066
:1028800089805A1CE2605A78732A00F0AD80642A6D
:1028900000F089802046FFF781FF034628B30278C5
:1028A000472A22D0492A20D01F464FF0FF36204623
:1028B000FDF71EFE00286DD0731C08BF3B4614D0E8
:1028C000D4E905239A4280F2B080216902EB8200AC
:1028D00001EB800301324FF0000CC3E901CC6261CF
:1028E000482201F82020C3E903762A78032A05D17B
:1028F0002A691178292904BF0021D1602A460221C2
:1029000081E7D0E9053102328B42C26080F28880D3
:10291000026903EB8305A9000133436102EB8505DE
:102920000023C5E901335354414A0323C5E9032376
:102930002046FEF71BFE2A46034601212046FDF7EE
:102940006FFCE26AE3680332E2621A78492A0546BC
:102950007FF43DAFF0B1D4E908218A421ADAE16987
:1029600041F82200013222621A78493A012A0FD82E
:1029700041E778B1D4E908218A420BDAE16941F8EC
:102980002200013222621A78493A012A7FF633AFD7
:10299000002336E70025284603B0F0BD002100F0F3
:1029A0004BF8054665E79A1CE2609A785F2A39D0B1
:1029B0006E2AEFD02046FDF7ABFC461CEAD4E36854
:1029C0001A785F2AE6D10133E3602046FFF7E6FE7E
:1029D000074600283FF474AF3B78472B3FF470AFB5
:1029E000492B3FF46DAF62E70233E3602046FDF709
:1029F0007FFD0028CED0D4E905239A4215DA21695B
:102A000002EB820398000132626101EB8303002232
:102A1000C3E901220A5407490E22C3E9031264E7FD
:102A2000002585E703330026CEE700235DE700BFDE
:102A3000FC2F0108EC2F010870B505460E46FFF784
:102A4000ADFE00B304460EB3AB68DB071ED423789B
:102A50004E2BA3F11C01A3F150023AD037D8042920
:102A600037D9022B10D123696BB11A784E2AA2F103
:102A70001C00A2F1500102D03DD8042804D8DB6824
:102A80002361002BF1D10024204670BDEB681B7838
:102A9000002BF9D0452BF7D021460B78042B2DD0F5
:102AA0001ED8022B1AD109690029F6D12846FEF753
:102AB0007FFC03460028E6D016B92278022A31D0DE
:102AC000224628460321BDE87040FDF7A9BB012A34
:102AD000DAD8E468BBE71C3B042B08D90021E5E702
:102AE0004E2BA3F1500202D0F5D9012AF6D8C968BD
:102AF0000029D2D1DAE70129C6D8C0E7CB685BB19B
:102B00001978082901F1FF3208D80629E6D8012AE8
:102B100002D81B69002BF3D10121C7E7353918BF53
:102B20000121C3E70278292A08BFC660C8E700BFB1
:102B30002DE9F04F044695B0002A66D0D0F8185120
:102B4000002D65D117781646512F5ED8DFE817F0B3
:102B500053091B011B01EB048F08DB02470497009C
:102B60008B00F008C908A303B80191016A013E0770
:102B70001707F006ED07C6078C0765077C032004DE
:102B8000F5039900990099006300630063006300F6
:102B9000630063006300C500C500630063008E0925
:102BA0008300C5049406AF007206AF00E600E6009D
:102BB0005503310307033B085D0014086A064D0600
:102BC000F2055D0017095D005D002A012A01640419
:102BD00068086208B70487044C05C1059A057305A7
:102BE0005D00B4027D0256020A02DF016300CA03DF
:102BF00063006300D4F824110029C1F21B84FDF79F
:102C00009BFC0246002841F015840123C4F81831CA
:102C100015B0BDE8F08F0022D4F814310493D4F835
:102C20001031079304ABC4F81431002305960693C2
:102C3000002A01F0E6871121204601F0F1FF069BF2
:102C4000002B01F0EE82049BC4F81431002DDFD07C
:102C5000C4F81081DCE7F2681121204615B0BDE808
:102C6000F04F01F0DDBFD0F80011FF2901F05885C9
:102C70004A1C7E23C4F80021635484F8043132696D
:102C8000EAE7D0F814C1BCF1000F0ED06346996892
:102C900041B95A681278A2F11900022801F2EE84B3
:102CA0009742D8D01B68002BF1D1F2682BE0D0E915
:102CB000443104AAC0F814210022CDE9041606927A
:102CC00011213269079301F0ABFF069B002B01F045
:102CD000C284049BC4F814319AE7D268D0F820511A
:102CE0001378002D41F06683052B01F0CD85104649
:102CF000232B01F0DD829F4201F0DA82242B01F0C8
:102D00000586D4F814C1D4F81031079304ABC4F885
:102D100014310023CDE904C606938CE7D26812B1C2
:102D2000112101F07DFF3369002B3FF471AFD4F81E
:102D30000051FD2D01F2A684DFF820832C2708F135
:102D4000010A4FF0000929460BE00B460131D0453E
:102D5000C4F80011E75484F8047101F0698218F88E
:102D6000017FFF29F1D1D4F80831D4F80C2184F87F
:102D7000FF9020469847D4F828310133C4F8283111
:102D800001210023E3E7D268112101F049FFB44992
:102D90002046FDF7BBFC37693B78482B01F0928059
:102DA0003A4659E7D2681378272B41F05083D3680D
:102DB0001D7C062D01F28282002D41F01585D4F88C
:102DC0000011FF2901F0E9844B1CC4F800312823CD
:102DD00063542046112184F8043101F021FFD4F816
:102DE0000011FF2901F0F0844B1CC4F800312923A5
:102DF000635484F8043133783E2B01F0DF84082DCE
:102E00007FF43DAF5B212046FDF7F8FB11213269CD
:102E1000204601F005FF5D21204615B0BDE8F04FCA
:102E2000FDF7ECBB8F4FD0F8001107F10F097425A7
:102E30004FF000080BE00B4601314F45C4F800117C
:102E4000E55484F804513FF406AF17F8015FFF29F9
:102E5000F1D1D4F80831D4F80C2184F8FF80204651
:102E60009847D4F828310133C4F8283101210023D0
:102E7000E3E77D4FD0F8001107F1110974254FF0F9
:102E800000080BE00B460131B945C4F80011E554C8
:102E900084F804513FF4DFAE17F8015FFF29F1D148
:102EA000D4F80831D4F80C2184F8FF8020469847E4
:102EB000D4F828310133C4F8283101210023E3E795
:102EC0006A4FD0F8001107F10C0974254FF0000883
:102ED0000BE00B4601314F45C4F80011E55484F86E
:102EE00004513FF4B8AE17F8015FFF29F1D1D4F8CF
:102EF0000831D4F80C2184F8FF8020469847D4F894
:102F000028310133C4F8283101210023E3E7584F69
:102F1000D268112101F084FE07F10409D4F80011F0
:102F20005B254FF000080BE00B460131B945C4F8B2
:102F30000011E55484F8045100F0FA8717F8015F96
:102F4000FF29F1D1D4F80831D4F80C2184F8FF809E
:102F500020469847D4F828310133C4F8283101219C
:102F60000023E3E7D2F80CA05146FDF785FB4FF0B4
:102F7000000810B901F02CBDC84603782F2B08F1CA
:102F8000010941F08C81C368002B01F08881006940
:102F90000028F1D103E001354D45BFF639AEC4F844
:102FA000245152461121204601F03AFEA845F2DD97
:102FB0002A4FD4F8001107F1010B2C260AE00B462A
:102FC0000131BB45C4F80011E65484F80461E2D035
:102FD00017F8016FFF29F2D14FF00002D4F8083141
:102FE00084F8FF202046D4F80C219847D4F82831E3
:102FF0000133C4F8283101210023E2E71D4FD0F846
:10300000001107F119096E254FF000080BE00B467F
:103010000131B945C4F80011E55484F804513FF476
:103020001AAE17F8015FFF29F1D1D4F80831D4F8AE
:103030000C2184F8FF8020469847D4F828310133CA
:10304000C4F8283101210023E3E70B4FD0F8001129
:1030500007F1150974254FF000081BE0A83101089D
:1030600008300108A83001089430010884300108B4
:103070000030010874310108783101080B46013134
:10308000B945C4F80011E55484F804513FF4E3ADA8
:1030900017F8015FFF29F1D1D4F80831D4F80C21D9
:1030A00084F8FF8020469847D4F828310133C4F8CB
:1030B000283101210023E3E7CE4FD0F8001107F1BA
:1030C0000D097B254FF000080BE00B4601314F4501
:1030D000C4F80011E55484F8045100F0438717F850
:1030E000015FFF29F1D1D4F80831D4F80C2184F81C
:1030F000FF8020469847D4F828310133C4F828319E
:1031000001210023E3E7D0F82031002B01F0878173
:10311000B94FD0F8001107F1040961254FF00008FC
:103120000BE00B460131B945C4F80011E55484F8B1
:10313000045101F0438117F8015FFF29F1D1D4F860
:103140000831D4F80C2184F8FF8020469847D4F841
:1031500028310133C4F8283101210023E3E7D7687F
:10316000A64ED7F80880D0F8001106F1070A6F259F
:103170004FF000090BE00B460131B245C4F80011D5
:10318000E55484F8045100F0308716F8015FFF29F8
:10319000F1D1D4F80831D4F80C2184F8FF902046FE
:1031A0009847D4F828310133C4F82831012100238D
:1031B000E3E7D2E9032512B1112101F031FDD4F882
:1031C0000011FF2901F06F824A1C7B23C4F8002103
:1031D000204663542A46112184F8043101F020FD71
:1031E000D4F80011FF2900F0F0864A1C7D23C4F8B2
:1031F0000021635484F804310AE5814FD0F80011AE
:1032000007F11D0974254FF000080BE00B46013152
:10321000B945C4F80011E55484F804513FF41BADDE
:1032200017F8015FFF29F1D1D4F80831D4F80C2147
:1032300084F8FF8020469847D4F828310133C4F839
:10324000283101210023E3E76E4FD0F8001107F188
:10325000140972254FF000080BE00B460131B94507
:10326000C4F80011E55484F8045100F0F28617F810
:10327000015FFF29F1D1D4F80831D4F80C2184F88A
:10328000FF8020469847D4F828310133C4F828310C
:1032900001210023E3E75C4FD0F8001107F1170983
:1032A00063254FF000080BE00B4601314F45C4F891
:1032B0000011E55484F8045100F07A8717F8015F93
:1032C000FF29F1D1D4F80831D4F80C2184F8FF801B
:1032D00020469847D4F828310133C4F82831012119
:1032E0000023E3E7494FD268112101F099FC07F16F
:1032F0000709D4F8001120254FF000080BE00B4619
:103300000131B945C4F80011E55484F8045100F0C6
:103310000F8617F8015FFF29F1D1D4F80831D4F8EE
:103320000C2184F8FF8020469847D4F828310133D7
:10333000C4F8283101210023E3E7D2E90353002B2D
:103340003FF466AC2B44D0F80011013D5F1E4FF0F6
:10335000000809E00B460131AF42C4F80011E65401
:1033600084F804613FF454ACFF2915F8016FF1D1E2
:10337000D4F80831D4F80C2184F8FF80204698470F
:10338000D4F828310133C4F8283101210023E3E7C0
:103390001F4FD0F8001107F1100968254FF0000801
:1033A0000BE00B460131B945C4F80011E55484F82F
:1033B00004513FF450AC17F8015FFF29F1D1D4F864
:1033C0000831D4F80C2184F8FF8020469847D4F8BF
:1033D00028310133C4F8283101210023E3E7D568FF
:1033E000002D40F0A9870B49204615B0BDE8F04FED
:1033F000FDF78CB97C32010820300108AC3101089E
:103400002830010848310108603001088C32010879
:10341000603101081C3201081121D26801F000FC62
:10342000D4F80011FF2901F058814A1C2823C4F860
:103430000021635484F8043132691121204601F0DF
:10344000EFFBD4F80011FF2901F013804A1C292357
:10345000C4F80021635484F80431FFF7D9BBD26863
:10346000AF4904A809F0F2FD04A804F051F80028BF
:103470003FF4CEAB04ADD4F800112F184FF0000884
:1034800009E00B460131AF42C4F80011E65484F85C
:1034900004613FF4BDABFF2915F8016BF1D1D4F8FD
:1034A0000831D4F80C2184F8FF8020469847D4F8DE
:1034B00028310133C4F8283101210023E3E7D0F893
:1034C0000011157BFF2901F01A814B1CC4F8003153
:1034D000655484F80451FFF79BBBD268CAB1D0F899
:1034E000141104ABC0F814310023CDE9041606937F
:1034F0001121D0F81031079301F092FB069B049A3A
:10350000C4F81421002B7FF483AB20212046FDF763
:1035100075F8D4F8143132461121204615B0BDE8B3
:10352000F04F01F0C3BED768D0F814910022C0F864
:103530001421002F3FF469AB0DF11008D0F810C131
:10354000434611469646C3E90027C3E902EC3A78A0
:103550004E2A9A46A2F11C0BA2F1500001F101057E
:1035600000F0908600F2F784BBF1040F40F28A86E7
:10357000022AC4F8143114D13F693A78482A01F07C
:103580005F8208EB01114FF0000A4E2AA2F15003AE
:10359000A2F11C0000F0808700F27B87042840F233
:1035A0007B87042A04D1CDE902C702ABC4F81031ED
:1035B00032691121204601F033FB3B78042B02D104
:1035C000029BC4F8103108EB0518202758F8086C46
:1035D000013D002E00F04386A8F11008002DF5D122
:1035E000C4F81491FFF714BB4E4FD0F8001107F147
:1035F000090964254FF000080BE00B4601314F45E7
:10360000C4F80011E55484F8045100F0078617F857
:10361000015FFF29F1D1D4F80831D4F80C2184F8E6
:10362000FF8020469847D4F828310133C4F8283168
:1036300001210023E3E73C4FD0F8001107F107090F
:103640007B254FF000080BE00B4601314F45C4F8D5
:103650000011E55484F8045100F0448517F8015F27
:10366000FF29F1D1D4F80831D4F80C2184F8FF8077
:1036700020469847D4F828310133C4F82831012175
:103680000023E3E7294FD0F8001107F11B09672554
:103690004FF000080BE00B460131B945C4F80011AA
:1036A000E55484F804513FF4D6AA17F8015FFF29C6
:1036B000F1D1D4F80831D4F80C2184F8FF802046E9
:1036C0009847D4F828310133C4F828310121002368
:1036D000E3E7174FD0F8001107F11C0967254FF0F9
:1036E00000080BE00B460131B945C4F80011E55460
:1036F00084F804513FF4AFAA17F8015FFF29F1D114
:10370000D4F80831D4F80C2184F8FF80204698477B
:10371000D4F828310133C4F8283101210023E3E72C
:10372000982F01080C3201086C3201084C32010854
:103730002C32010813691B78392B7FF466AAD268F2
:10374000D3681B685978632901F0738032461121D0
:10375000204602F003FB00287FF45AAA32461121CA
:10376000204602F025FC00287FF452AAF3681A785C
:10377000322A01F0E281DB68C049186803F06AFE72
:10378000336920B9DA681178032901F0FE81DA681B
:103790001121204602F074FAF568B949EB681F68F8
:1037A000384603F057FE002801F0D881B349384667
:1037B00003F050FE002841F0E181336911211A69BC
:1037C000204602F05DFAF3681A78322A7FF420AAC4
:1037D000DB689A68012A7FF41BAA5B681B783E2B82
:1037E0007FF416AA2921FFF717BBD2E903753B78AE
:1037F000322B00F0A086342B41F006822821FCF702
:10380000FDFE20461121FA6801F00AFA292120461E
:10381000FCF7F4FE2A461121204615B0BDE8F04F12
:1038200002F02EBAD2681121204615B0BDE8F04F43
:1038300002F030B8B2F91230002B40F01387F26872
:10384000904BD16899420FD01121204601F0E8F940
:10385000D4F80011FF2901F0C38020234A1CC4F8CA
:103860000021635484F80431B6F91080B8F1000FD8
:1038700000F03E858449B7E5D0F814C1D0F8103186
:1038800007930DF110080023E146CDF810C0C0F8F1
:10389000148105920693BCF1000F01F042810127CB
:1038A0006546BE469446464618E0AB68A3B9032F6A
:1038B0003FF6ABA914AB03EB071B95E80F00ABF188
:1038C000400A8AE80F004BF8406C08EB0716C4F872
:1038D00014610137C5F808E02D6825B16B681B78C5
:1038E000193B022BE1D9DCF8102011212046664655
:1038F00001F096F9069BC4F81491002B7FF488A977
:10390000012F0CD008EB071858F80C2C013F11219F
:10391000204601F0B3F9012FA8F11008F4D1D4F832
:10392000143132461121204601F0D0FEFFF770B964
:10393000564FD0F8001107F1190963254FF0000820
:103940000BE00B460131B945C4F80011E55484F889
:1039500004513FF480A917F8015FFF29F1D1D4F891
:103960000831D4F80C2184F8FF8020469847D4F819
:1039700028310133C4F8283101210023E3E7444F03
:10398000D0F8001107F1100976254FF000080BE080
:103990000B460131B945C4F80011E55484F80451CF
:1039A0003FF459A917F8015FFF29F1D1D4F8083184
:1039B000D4F80C2184F8FF8020469847D4F82831A9
:1039C0000133C4F8283101210023E3E7314FD0F857
:1039D000001107F114096E254FF000080BE00B46AB
:1039E0000131B945C4F80011E55484F804513FF49D
:1039F00032A917F8015FFF29F1D1D4F80831D4F8C2
:103A00000C2184F8FF8020469847D4F828310133F0
:103A1000C4F8283101210023E3E71F4FD0F800113B
:103A200007F1180954254FF000080BE00B4601314F
:103A3000B945C4F80011E55484F804513FF40BA9CA
:103A400017F8015FFF29F1D1D4F80831D4F80C211F
:103A500084F8FF8020469847D4F828310133C4F811
:103A6000283101210023E3E70C4FD0F8001107F1C2
:103A7000150954254FF000081EE000BFC8310108A9
:103A8000CC310108B425010898310108D43001086F
:103A9000C0300108BC3001082C3101081431010884
:103AA0000B460131B945C4F80011E55484F80451BE
:103AB0003FF4D1A817F8015FFF29F1D1D4F80831FC
:103AC000D4F80C2184F8FF8020469847D4F8283198
:103AD0000133C4F8283101210023E3E7CC4FD0F8AB
:103AE000001107F1120967254FF000080BE00B46A3
:103AF0000131B945C4F80011E55484F804513FF48C
:103B0000AAA817F8015FFF29F1D1D4F80831D4F839
:103B10000C2184F8FF8020469847D4F828310133DF
:103B2000C4F8283101210023E3E7BA4FD0F800118F
:103B300007F10E096A254FF000080BE00B46013132
:103B4000B945C4F80011E55484F804513FF483A842
:103B500017F8015FFF29F1D1D4F80831D4F80C210E
:103B600084F8FF8020469847D4F828310133C4F800
:103B7000283101210023E3E7A74FD0F8001107F116
:103B800008096F254FF000080BE00B460131B945DD
:103B9000C4F80011E55484F8045100F0868217F847
:103BA000015FFF29F1D1D4F80831D4F80C2184F851
:103BB000FF8020469847D4F828310133C4F82831D3
:103BC00001210023E3E7944FD0F8001107F1080921
:103BD0006F254FF000080BE00B460131B945C4F8E2
:103BE0000011E55484F804513FF449A817F8015F27
:103BF000FF29F1D1D4F80831D4F80C2184F8FF80E2
:103C000020469847D4F828310133C4F828310121DF
:103C10000023E3E7D268112101F002F8FFF72FB883
:103C20007E4FD0F8001107F10D096A254FF000080A
:103C30000BE00B460131B945C4F80011E55484F896
:103C400004513FF408A817F8015FFF29F1D1D4F817
:103C50000831D4F80C2184F8FF8020469847D4F826
:103C600028310133C4F8283101210023E3E7002380
:103C7000D0F81481D0F84871C4F848211121C0F857
:103C80001431D26800F0CCFF94F804313C2B00F0E2
:103C90007E85D4F80011FF2900F069854B1CC4F81B
:103CA00000313C23635484F80431326911212046E9
:103CB00000F0B6FF94F804313E2B00F05285D4F8A2
:103CC0000011FF2900F03D854B1CC4F800313E2354
:103CD000635484F80431C4F81481C4F84871FEF7C1
:103CE00097BF4F4FD0F8001107F1070956254FF045
:103CF00000080BE00B4601314F45C4F80011E554B4
:103D000084F804513EF4A7AF17F8015FFF29F1D101
:103D1000D4F80831D4F80C2184F8FF802046984765
:103D2000D4F828310133C4F8283101210023E3E716
:103D30003C4FD0F8001107F10A0976254FF0000832
:103D40000BE00B460131B945C4F80011E55484F885
:103D500004513EF480AF17F8015FFF29F1D1D4F888
:103D60000831D4F80C2184F8FF8020469847D4F815
:103D700028310133C4F8283101210023E3E7136916
:103D80001A783B2A7EF441AF1B691B783C2B7EF4EA
:103D90003CAF3246112101F0E1FF00287EF438AF3C
:103DA00032461121204602F003F900287EF430AF9C
:103DB000D6E90383D3E90363D8F80C201A491068C5
:103DC000D3E9037503F046FB002840F0EC86324649
:103DD0002046112101F054FF42462046112101F0F6
:103DE00059FD20463A46112101F04AFF0F4920466D
:103DF000FCF78CFC0EE5D2E90353002B3EF408AF30
:103E00002B44D0F80011013D5F1E4FF0000819E06F
:103E100000310108F0300108B8310108FC31010817
:103E20005430010848300108D0310108D43101086C
:103E30000B460131AF42C4F80011E65484F8046126
:103E40003EF4E6AEFF2915F8016FF1D1D4F8083140
:103E5000D4F80C2184F8FF8020469847D4F8283104
:103E60000133C4F8283101210023E3E7D268D2E905
:103E70000053002B3EF4CCAE2B44D0F80011013D92
:103E80005F1E4FF0000809E00B460131AF42C4F855
:103E90000011E65484F804613EF4BAAEFF2915F827
:103EA000016FF1D1D4F80831D4F80C2184F8FF80E7
:103EB00020469847D4F828310133C4F8283101212D
:103EC0000023E3E7C1492046FCF720FC3A69C049DA
:103ED000013204A809F0BAF804A803F019FB8146DE
:103EE000002800F0F28304ADD4F80011A9444FF08B
:103EF000000809E00B460131A945C4F80011E65459
:103F000084F8046100F0E183FF2915F8016BF1D119
:103F1000D4F80831D4F80C2184F8FF802046984763
:103F2000D4F828310133C4F8283101210023E3E714
:103F300011213269204600F073FED4F80011FF29E8
:103F400000F088824A1C5D23C4F80021635484F881
:103F50000431FEF75DBE012840F29481C4F81431AB
:103F6000FFF726BBF2689A49013204A809F06EF8FF
:103F700004A803F0CDFA18B304ADD4F800112F183B
:103F80004FF0000808E00B460131AF42C4F80011C1
:103F9000E65484F8046115D0FF2915F8016BF2D1BD
:103FA000D4F80831D4F80C2184F8FF8020469847D3
:103FB000D4F828310133C4F8283101210023E4E783
:103FC000D4F80011FF297FF410A90025D4E942326A
:103FD00084F8FF5020469847D4F828310122134432
:103FE000C4F828312946FFF701B97D682B78613B79
:103FF000192B40F2258308F1FF37EB5D202B18BF0A
:104000004746002F3EF404AE013DD4F800112F4482
:104010004FF0000809E00B460131AF42C4F800112F
:10402000E65484F804613EF4F3ADFF2915F8016FFE
:10403000F1D1D4F80831D4F80C2184F8FF8020465F
:104040009847D4F828310133C4F8283101210023DE
:10405000E3E7604F32691121204600F0E1FD07F1EE
:104060000409D4F8001120254FF000080BE00B469E
:104070000131B945C4F80011E55484F804513EF407
:10408000EAAD17F8015FFF29F1D1D4F80831D4F86F
:104090000C2184F8FF8020469847D4F8283101335A
:1040A000C4F8283101210023E3E7D4F8483133B1C3
:1040B000D4F81011049104AAC4F810210593F268F1
:1040C0001378042B00F002821121204600F0A8FD95
:1040D000D4F84831002B3EF49BAD049BC4F810315A
:1040E000FEF796BDD4F82031F2683B4F0133C4F897
:1040F00020311121204600F093FDD4F82031D4F86E
:104100000011013BC4F8203107F1010929254FF0C6
:1041100000080AE00B4601314F45C4F80011E55490
:1041200084F8045113D017F8015FFF29F2D1D4F8B5
:104130000831D4F80C2184F8FF8020469847D4F841
:1041400028310133C4F8283101210023E4E7326922
:104150001F49013204A808F079FF04A803F0D8F938
:1041600000283FF42DAF04ADD4F800112F184FF004
:10417000000809E00B460131BD42C4F80011E654C5
:1041800084F804613FF41EAFFF2915F8016BF1D1EB
:10419000D4F80831D4F80C2184F8FF8020469847E1
:1041A000D4F828310133C4F8283101210023E3E792
:1041B0000A4FF2681121204600F032FD07F1030991
:1041C000D4F800112D254FF0000815E00C3001083F
:1041D000982F010840310108783201087C3001082D
:1041E0000B460131B945C4F80011E55484F8045177
:1041F0003EF445AD17F8015FFF29F1D1D4F808313D
:10420000D4F80C2184F8FF8020469847D4F8283150
:104210000133C4F8283101210023E3E7F268FFF7F6
:104220000CB932461121204600F028FDFEF70BBDE7
:104230003269D4F828610D462046112100F0F0FCC7
:10424000D4F82831B3427EF4E3ACD4F800319D4277
:104250007EF4DEAC023DC4F80051FEF7D9BCD4F8C0
:104260000011FF2900F055834B1CC4F8003158F8A9
:104270000C2C6754204684F80471112100F0FEFCD8
:10428000FFF7AAB9FF685246002F00F0A584042D5D
:1042900003F1100300F0EB812946FFF754B9B8F1A0
:1042A000000F3EF4B5ACC14608F1FF38FEF777BE0B
:1042B000D4F814C1C2680646FEF725BD072D7EF46A
:1042C0007EAD3369197800297EF479AD1969012929
:1042D0007EF475AD3D2F7EF472ADDB681B78302B1C
:1042E00000F08C84312B7EF46AADC049FFF77CB8B6
:1042F000BF4ED4F80011771D5F250BE00B4601314E
:10430000B742C4F80011E55484F804513EF480AC7F
:1043100016F8015FFF29F1D1D4F80831D4F80C2147
:1043200084F8FF8020469847D4F828310133C4F838
:10433000283101210023E3E7AE49FCF7E7F9AE4954
:104340002A4604A808F082FE04A803F0E1F818B396
:1043500004ADD4F800112F184FF0000808E00B4608
:104360000131BD42C4F80011E65484F8046115D04F
:10437000FF2915F8016BF2D1D4F80831D4F80C21DB
:1043800084F8FF8020469847D4F828310133C4F8D8
:10439000283101210023E4E7D4F80011FF2900F0BF
:1043A00009837D234A1CC4F80021635484F8043136
:1043B000FEF72EBC10460025FEF79ABCF2688E4927
:1043C000013204A808F042FE04A803F0A1F8002876
:1043D0003EF41EAC04ADD4F800112F184FF00008C5
:1043E00009E00B460131BD42C4F80011E65484F8DF
:1043F00004613EF40DACFF2915F8016BF1D1D4F83E
:104400000831D4F80C2184F8FF8020469847D4F86E
:1044100028310133C4F8283101210023E3E7114694
:10442000FCF70EF9024600283EF4EFAB03782F2B81
:104430003EF4E0ABD4F810512B68C4F810311121D0
:10444000204600F0EDFBC4F81051FEF7E1BB00255B
:10445000FEF7B5BC0025D4E9423284F8FF5020466F
:104460009847D4F8283101221344C4F8283129464A
:1044700069E50025D4E9423284F8FF502046984788
:10448000D4F8283101221344C4F828312946FEF714
:10449000DEBF012B3FF68CA8042D3EF4B6AB8E4652
:1044A00001F1100B0FC98BE80F00CEE9017AFF680C
:1044B000CEF810E00135CEF80CC05946C4F814B15E
:1044C000002F3EF4A2AB3A78FFF75FB8D268112113
:1044D000204600F0A5FBD4F8483113B1049BC4F882
:1044E000103194F804313C2B00F0D482D4F8001140
:1044F000FF2900F0BF824A1C3C23C4F8002163540A
:1045000084F80431F36811211A69204600F088FB11
:1045100094F804313E2B00F0A882D4F80011FF2952
:1045200000F095823E234A1CC4F80021635484F8AD
:104530000431FEF76DBBFB681E683378612B40F0D9
:104540009B807278642A40F09780B278002A40F00D
:1045500093802A78032A00F0A282392A00F0AA82E6
:10456000732B11D172785A2A35D1B2789ABB294669
:104570002046FCF781F8FBF7ABFF0146204615B05B
:10458000BDE8F04FFCF726B93A461121204601F06C
:1045900081F93378672B07D17278732A04D1B27806
:1045A00012B92A46FEF758BB732B7FF433A97378F0
:1045B000742B7FF42FA9B378002B7FF42BA928212B
:1045C0002046FCF71BF811212A46204600F028FB64
:1045D0002921FEF721BC732BD6D17378502BD3D170
:1045E000B378002BD0D11E460DE000BFF431010896
:1045F000A031010824320108982F010801362D69E5
:10460000002D00F096812B782F2B40F09281EB68E3
:10461000002B00F08E811A784C2AEFD1D968204601
:10462000FCF72AF8024648B1002204E0C16829B12B
:104630000069013210B101782F29F7D01644DEE766
:10464000FF2900F0DE814B1CC4F8003120236354A5
:1046500084F80431CFE432461121204600F00EFBED
:10466000FEF737BBCB49FCF751F8FFF7E8B8012359
:10467000C4E945A3FEF7CCBA2A786EE7F2680D4686
:10468000FEF741BB002767552946D4E94232204650
:104690009847D4F82831C4F800710133C4F82831A0
:1046A0003D46FEF749BB0026D4F80831D4F80C216A
:1046B00084F8FF6020469847D4F82831012213443B
:1046C000C4F828313146FEF780BDB3492046FCF7D7
:1046D0001DF8FF683A46FEF7BFBA0025D4F8083146
:1046E000D4F80C2184F8FF5020469847D4F828319C
:1046F00001221344C4F828312946FEF797BE00264C
:10470000D0F80831D0F80C2180F8FF609847D4F831
:10471000282101231A44C4F828213146FEF7D6BEC9
:104720000025D0F80831D0F80C2180F8FF509847C8
:10473000D4F8283101221344C4F828312946FEF761
:1047400098BA0025D4E9423284F8FF5020469847B1
:10475000D4F828310133C4F8283129460123FFF762
:10476000B4BA20212046FBF749FFFFF7A8BA00257D
:10477000D4E9423284F8FF5020469847D4F82831D3
:104780000133C4F8283129460123FFF788BA2021D4
:104790002046FBF733FFFFF77CBA0027D4E942320B
:1047A00084F8FF7020469847D4F82831F268013326
:1047B000C4F8283139460123FEF707BB2D212046D6
:1047C000FBF71CFFFEF71BBB0027D4E9423284F83D
:1047D000FF7020469847D4F828310133C4F82831B7
:1047E00039460123FEF701BB33691B78002B7EF4A9
:1047F000E6AA3E2F00F0F481326911212046023DE5
:1048000000F00EFA042D3EF603AADFE805F00F0CC7
:10481000090603006149FEF7E7BD6149FEF7E4BD03
:104820006049FEF7E1BD6C21FEF7F6BA7521FEF78F
:10483000F3BA1B78732B0CD0633BDBB20F2B3EF625
:1048400085AF594901EB8303D3F8FC37002B3EF4C5
:104850007DAF1121204601F01DF83C212046FBF7D9
:10486000CDFE33691121DA68204600F0D9F94F49AD
:104870002046FBF74BFF336911211A69204600F0EF
:10488000CFF92921FEF7C8BAD0F834C1BCF1000F26
:1048900040F31881D0F830E12B46704604E06345C0
:1048A00000F1080000F00E815EF833108A4203F137
:1048B0000103F4D1D4F82CC16346BCF1000F04D13C
:1048C000AEE05B68002B00F0AB801968914203D02A
:1048D000B142F6D19C45F4D0114620460192FBF737
:1048E000AFFE019A00283EF490A903782F2B7EF4A6
:1048F000FFA9D4F824110029FEF603AAFBF71CFE39
:10490000002800F071810378FEF7F2B9C268FEF763
:1049100083B9D4F80831D4F80C2184F8FF6020461C
:104920009847D4F828310133C4F82831314601239F
:104930009BE41F49324604A808F088FB04A802F053
:10494000E7FD074600283EF463A904ADD4F8001142
:104950002F444FF0000809E00B460131AF42C4F884
:104960000011E65484F804613EF452A9FF2915F8B9
:10497000016BF1D1D4F80831D4F80C2184F8FF8010
:1049800020469847D4F828310133C4F82831012152
:104990000023E3E7903101081C300108E8310108E9
:1049A000E4310108E031010850240108C431010854
:1049B000982F01080025D4E9423284F8FF502046A0
:1049C0009847D4F8283101332946C4F82831E8E45F
:1049D00011212046524601F053F98E49FEF704BDDD
:1049E0000025D4F80831D4F80C2184F8FF50204673
:1049F0009847D4F8283101332946C4F82831FEF706
:104A00002CBF0026D4E9423284F8FF602046984744
:104A1000D4F828317D680133C4F82831314612E6D4
:104A20004368D4F81081C4F8103111462046019231
:104A3000FBF706FE019A002800F0D980012554E713
:104A4000FF68002F3EF4E1A83A78FEF79ABD0025F2
:104A5000D4E9423284F8FF5020469847D4F82831F0
:104A600001332946C4F828315CE520212046FBF7B4
:104A7000C5FD52E50025D4F80831D4F80C2184F89E
:104A8000FF5020469847D4F8283101332946C4F80E
:104A9000283130E520212046FBF7B0FD26E5EA6805
:104AA000117801297FF45CAD29690978292908BFAB
:104AB000154655E5EA681121204601F0E1F83A462D
:104AC000FEF7B1BED4F8383163457EF79EA8D4F81E
:104AD0003011D4F810E101EBCC030CF10100C4F863
:104AE0003401043341F83C20BEF1000F00F0838014
:104AF000D4E9500911E0D4F83C11DEF804C001EB10
:104B0000C0010130C4F84001C1F804C01960DEF8EA
:104B100000E00B46BEF1000F6DD08145EBDCFEF7E7
:104B200074B81269112100F07BF8069BC4F8149147
:104B3000002B3EF4F4AEFEF76BB8DA6891680129F9
:104B40007EF419AE526812783E2A7EF414AE282103
:104B50002046FBF753FDF368FEF70DBE20465B21B0
:104B6000FBF74CFD336920461A69112100F058F813
:104B70005D212046FBF742FDFEF725BE2A461121A6
:104B8000204600F087FEFEF718BE1369D2681B7836
:104B9000292B1CBF0123C4F818311121204601F034
:104BA0006FF8FEF7F9BD1C492046FBF7AFFDF3682F
:104BB00043B111212046324601F062F820212046FF
:104BC000FBF71CFD3A461121204600F029F8002D84
:104BD0007EF420AEFEF71CB8C4F81431FEF715B809
:104BE0002D21FBF70BFD07E6002D3EF40EA8C4F8BF
:104BF0001081FEF70AB8002119606DE60749FEF73B
:104C0000F3BBF268FEF717B83A46112100F042FEF6
:104C1000FEF700BE18320108D8310108EC31010856
:104C200030B5054683B01AB35368012B14461FDC18
:104C3000D0F81C11B1F5806F1ADC013353600131DB
:104C4000D0F82C31C0F81C11C0F82CD11121CDE9BD
:104C50000023FDF76DFF6268D5F81C310199C5F896
:104C60002C11013A013B6260C5F81C3103B030BD24
:104C70000123C5F8183103B030BD00BF2DE9F8435A
:104C80001378033B154604464E2B50D8DFE813F04B
:104C90001A014F004F004F004F004F004F004F00D0
:104CA0004F004F004F004F004F004F004F004F008C
:104CB0004F004F004F004F004F004F0054007B004B
:104CC000A20054007B00A200EE00FB00080183025A
:104CD0001F012D01520178014F004F004F004F007E
:104CE0009E014F00CE014F004F004F004F004F007C
:104CF0004F004F004F004F004F004F004F004F003C
:104D00004F004F004F004F004F004F004F004F002B
:104D10004F004F004F004F004F004F004F004F001B
:104D20004F004F004F00F5014F003002C7002A46E8
:104D30001121BDE8F84373E7D44ED0F8001106F115
:104D4000080720254FF000080BE00B460131BE425A
:104D5000C4F80011E55484F8045100F0C48016F83A
:104D6000015FFF29F1D1D4F80831D4F80C2184F87F
:104D7000FF8020469847D4F828310133C4F8283101
:104D800001210023E3E7C24ED0F8001106F1080725
:104D900020254FF000080BE00B460131B742C4F864
:104DA0000011E55484F8045100F09D8016F8015F6D
:104DB000FF29F1D1D4F80831D4F80C2184F8FF8010
:104DC00020469847D4F828310133C4F8283101210E
:104DD0000023E3E7AF4ED0F80011771D20254FF0F8
:104DE00000080AE00B460131B742C4F80011E5544F
:104DF00084F8045177D016F8015FFF29F2D1D4F876
:104E00000831D4F80C2184F8FF8020469847D4F864
:104E100028310133C4F8283101210023E4E79E4FF3
:104E2000D0F8001107F1050920264FF000080BE02B
:104E30000B460131B945C4F80011E65484F8046109
:104E400000F07C8117F8016FFF29F1D1D4F8083107
:104E5000D4F80C2184F8FF8020469847D4F82831F4
:104E60000133C4F8283101210023E3E7D0F80031F1
:104E7000FF2B00F0CD812022591CC0F80011C25434
:104E800080F8042125E0D0F80031FF2B00F0B1813B
:104E9000591C2022C4F80011E25484F8042126E0B1
:104EA000D0F80011FF2900F094814A1C2023C4F897
:104EB0000021635484F804312A6920461121BDE899
:104EC000F843ADE6EA681121BDE8F843A8E6D0F85A
:104ED0000011FF2900F0BB814A1C2623C4F80021E1
:104EE000635484F80431BDE8F883D0F800116B4DA9
:104EF00026266F1C4FF000080AE00B460131BD4228
:104F0000C4F80011E65484F80461ECD015F8016F80
:104F1000FF29F2D1D4F80831D4F80C2184F8FF80AD
:104F200020469847D4F828310133C4F828310121AC
:104F30000023E4E75A4ED0F8001106F108072025B7
:104F40004FF000080AE00B460131B742C4F80011E7
:104F5000E55484F80451C6D016F8015FFF29F2D158
:104F6000D4F80831D4F80C2184F8FF802046984703
:104F7000D4F828310133C4F8283101210023E4E7B3
:104F8000484ED0F8001106F10A0720254FF000081E
:104F90000AE00B460131B742C4F80011E55484F829
:104FA0000451A0D016F8015FFF29F2D1D4F80831DE
:104FB000D4F80C2184F8FF8020469847D4F8283193
:104FC0000133C4F8283101210023E4E790F80431CB
:104FD000282B40F0D480344EEA6811212046FFF798
:104FE0001FFEB71CD4F800113A254FF000080BE063
:104FF0000B460131B742C4F80011E55484F804515E
:105000003FF471AF16F8015FFF29F1D1D4F80831F0
:10501000D4F80C2184F8FF8020469847D4F8283132
:105020000133C4F8283101210023E3E71F4FD0F8F2
:10503000001107F1090920264FF000080BE00B468C
:1050400001314F45C4F80011E65484F8046100F0C2
:10505000848017F8016FFF29F1D1D4F80831D4F812
:105060000C2184F8FF8020469847D4F8283101337A
:10507000C4F8283101210023E3E70D4ED0F80011D8
:1050800006F1100720254FF000081FE098320108B4
:10509000A4320108B0320108D8320108E032010818
:1050A000E4320108F0320108FC3201080033010843
:1050B000B83201080B460131B742C4F80011E5547B
:1050C00084F804513FF40FAF16F8015FFF29F1D1C6
:1050D000D4F80831D4F80C2184F8FF802046984792
:1050E000D4F828310133C4F8283101210023E3E743
:1050F0006D4FD0F8001107F1080920264FF0000885
:105100000AE00B460131B945C4F80011E65484F8B1
:10511000046113D017F8016FFF29F2D1D4F80831D8
:10512000D4F80C2184F8FF8020469847D4F8283121
:105130000133C4F8283101210023E4E72A69002A59
:105140003FF4D1AEFF2932D0481C2823C4F8000117
:105150006354112184F8043101E0EA6811212046EA
:10516000FFF75EFDD4F80011FF2961D04A1C292306
:10517000C4F80021635484F80431BDE8F883D0F802
:105180000011FF2972D04A1C2023C4F80021635467
:1051900084F804311FE7D0F80011FF2976D04A1CAB
:1051A0002A23C4F80021635484F804319BE60026C6
:1051B000D4F80831D4F80C2184F8FF6020469847D1
:1051C000D4F828312A690133C4F828310120314646
:1051D000BBE70026D0F80831D0F80C2180F8FF603A
:1051E0009847D4F8283101221344C4F828313146B5
:1051F0005CE60025194680F8FF50D0E94232984716
:10520000D4F8283101210B44C4F828312B4640E65C
:105210000021D0E9425280F8FF101946A847D4F87F
:10522000283120220133C4F828312270012153E6AD
:105230000025D4E9423284F8FF5020469847D4F83C
:10524000283101221344C4F8283129468FE700256C
:10525000D4E9423284F8FF5020469847D4F82831E8
:1052600001221344C4F82831294636E60026D0F836
:105270000831D0F80C2180F8FF609847D4F8283125
:1052800001221344C4F8283131467DE70025D0E9D6
:10529000423280F8FF509847D4F828310122134455
:1052A000C4F8283129467BE7CC3201082DE9F843C0
:1052B000044616461D469BB1714F01209A687AB983
:1052C0005A6811781939C9B2122900FA01F204D8C2
:1052D0003A4235D112F4606F74D11B68002BEDD1C6
:1052E0000023D4F81471C4F814312A461121204641
:1052F00000F0C8F8D4F80031FF2B4BD02822591CFD
:10530000C4F80011E25484F8042132692AB1112151
:105310002046FFF785FCD4F80011FF2976D04B1CFE
:105320002922C4F8003120466254012384F8042164
:1053300011212A4600F0A6F8C4F81471BDE8F883DC
:1053400094F80431202B45D1D4F80011FF294ED018
:105350004B1C4FF02808C4F8003104F801804FF0CE
:105360000009D4F8147184F804811121C4F814914F
:105370004B462A46204600F085F8D4F80011FF2954
:1053800053D04B1C2922FF2BC4F80031625484F8FF
:105390000421B3D11946002384F8FF302046D4E914
:1053A00042329847D4F828310133C4F828312823F1
:1053B000237084F8043132690121C4F80011002AF5
:1053C000A5D1ACE794F8043103F0FD02282ABBD044
:1053D000202BB9D0D4F80031FF2B3ED0591C20220D
:1053E000FF29C4F80011E25484F80421B0D1002749
:1053F000D4E9423284F8FF7020469847D4F8283127
:105400000133C4F8283139460123A2E70026D4E944
:10541000423284F8FF6020469847D4F8283101339F
:10542000C4F82831314601237AE7D4E9423284F8BE
:10543000FF902046984742F62903238084F8048190
:10544000D4F82831326901330221C4F82831C4F874
:105450000011002A7FF45BAF61E70022194684F84F
:10546000FF20D4F80871D4F80C212046B847D4F8AE
:10547000283120220133C4F828312270012167E746
:1054800007310400002A00F0C2802DE9F0470546EC
:1054900088B01E4614460127D5F81821CAB9A2685B
:1054A0000ABB62681178BEB1E368D5F81081A760C5
:1054B0002929C5F8103124D02A292CD0022934D02A
:1054C00011212846FFF7DAFB2468C5F81081002C6B
:1054D000E2D108B0BDE8F0874E2904D007D8A1F189
:1054E0001C03042BE0D82468002CD5D1F1E75039F7
:1054F0000129F8D9E368D5F81081A760C5F8103103
:10550000DEE7236811212846FFF7D0FEC5F8108199
:1055100008B0BDE8F08723681121284600F0D6F8CE
:10552000C5F8108108B0BDE8F087644ED5F8147155
:10553000D2684FF000091121C5F814912846FFF7F1
:105540006FFB06F1010AC5F81471D5F800113A276E
:105550000AE00B4601315645C5F80011EF5485F8B5
:10556000047113D016F8017FFF29F2D1D5F8083164
:10557000D5F80C2185F8FF9028469847D5F82831B2
:105580000133C5F8283101210023E4E763681C6971
:105590002378482B17D04E2BA3F15002A3F11C0106
:1055A0000ED00BD804290BD9224611212846FFF72B
:1055B00037FBC5F8108108B0BDE8F087012AF3D8A1
:1055C000E4682378E7E73E4F7B2607F10C0A4FF0AB
:1055D00000090AE00B4601315745C5F80011EE54A9
:1055E00085F8046114D017F8016FFF29F2D1D5F8BE
:1055F0000831D5F80C2185F8FF9028469847D5F852
:1056000028310133C5F8283101210023E4E7704730
:1056100022692C49013201A807F018FD01A801F008
:1056200077FF824618B301AED5F80011B2444FF0AF
:10563000000908E00B4601315645C5F80011EF544A
:1056400085F8047115D0FF2916F8017BF2D1D5F841
:105650000831D5F80C2185F8FF9028469847D5F8F1
:1056600028310133C5F8283101210023E4E7D5F8BA
:105670000011154F7D2607F1020A4FF000090AE0DC
:105680000B4601315745C5F80011EE5485F8046109
:1056900096D017F8016FFF29F2D1D5F80831D5F867
:1056A0000C2185F8FF9028469847D5F8283101331A
:1056B000C5F8283101210023E4E700BF08300108C4
:1056C0000C300108982F01081C3001082DE9F04723
:1056D0000446174653B11E469D687DB31B68002BD8
:1056E000FAD1324611212046FFF7CCFED4F8003122
:1056F000FF2B00F09D80591C2022FF29C4F80011C7
:10570000E25484F8042127D05B224B1CC4F80031FA
:10571000625484F80421FA682AB111212046FFF767
:105720007FFAD4F80031FF2B2FD0591C5D22C4F82A
:105730000011E25484F80421BDE8F0875B681B780F
:105740002A2B32D111212B4632462046FFF79AFEF2
:10575000D4F80011FF29D7D10022D4F8083184F8F9
:10576000FF202046D4F80C2198475B22D4F828313A
:10577000227084F80421FA68591C0123C4F8281106
:10578000C4F80031002AC8D1CFE70025194684F8B3
:10579000FF50D4E9423220469847D4F828310121FD
:1057A0000B44C4F828312B46C0E7DFF8E480D4F876
:1057B00000114FF0200908F1010A0CE00B46D0451A
:1057C00001F10101C4F8001104F8039084F8049178
:1057D0001AD018F8019FFF29F0D1D4F80831D4F875
:1057E0000C2184F8FF5020469847D4F82831013323
:1057F000C4F8283100230121D045C4F8001104F871
:10580000039084F80491E4D111210023324620460C
:10581000FFF738FED4F80011FF2926D04B1C2922AF
:10582000FF2BC4F80031625484F804217FF463AF85
:105830000022194684F8FF20D4F80851D4F80C212E
:105840002046A847D4F828315B2245F62031218034
:1058500084F80421FA680133C4F828310223C4F81B
:105860000031002A7FF459AF5FE70022D4F80831F5
:1058700084F8FF202046D4F80C219847D4F828312A
:1058800029220133C4F828312270012333E700BFF5
:10589000143201081178322902D01121FFF7C0B962
:1058A000D3682DE9F041D3E9015767B32F44D0F80D
:1058B00000110446013D013F4FF0000809E00B468E
:1058C000BD4201F10101C4F80011E65484F80461FD
:1058D00019D0FF2915F8016FF1D1D4F80831D4F8A7
:1058E0000C2184F8FF8020469847D4F828310133F2
:1058F000C4F8283100230121BD42C4F80011E65448
:1059000084F80461E5D1BDE8F08100BF2DE9F04FD6
:10591000E9B0037800AF5F2BC7E90121054600F02D
:105920004181A7490822284607F0C6FC002800F05C
:1059300006814FF000090123B9F1020FFB64A9F1C0
:10594000020A0CBF45234623FB605FFA8AFA284609
:1059500001F0DEFD2B1842000021C7E90553B2F526
:10596000006F4FF01103C7E90735C7E90A12C7E90D
:105970000D10C7E90F11C7E91111396500F219813E
:105980008300E84600EB80000733A8EBC0008546A3
:1059900023F007036E46B9F1010FADEB030D7E62F4
:1059A000C7F830D03FD0BAF1010F34D8EB7A05F107
:1059B0000B045F2B3C6203D12B7B5A2B00F0B08091
:1059C000002A40F3AB80204601F0A2FD0023012213
:1059D000C6E90133BA62002800F0A080C6E903409E
:1059E000337000233246F96807F11400FAF718FC07
:1059F0000646204601F08CFD23183B62235C13B958
:105A0000002E40F0DF80FB6C013340F0C4800023A7
:105A1000FB64C5469BE707F11400FBF751F83B6AAE
:105A200006461B78EBE72B785F2BECD16B786A1C72
:105A30005A2B3A62E7D1AB78AA1C472B3A6200F0A6
:105A40009C80542B00F09980494607F11400FCF724
:105A5000F3FFFB69DB07064640F198803A6A13784A
:105A60002E2BCCD1334616461A467378A3F161012A
:105A700019294FF0000B46D95F2B44D0303B092B3E
:105A800000F2FB80317834462E2912D16378303B06
:105A9000092B0ED8A378A3F13001A01C09290446D4
:105AA00005D814F8013FA3F130010929F9D92E2BAB
:105AB000ECD0D7E90A318B423C62A4EB060068DAED
:105AC000796A03EB830C03F1010E002801EB8C03D0
:105AD000C3E901BBC7F828E05BDDC3E901BB01F8FE
